{
  "_format": "hh-sol-artifact-1",
  "contractName": "ProductAuth",
  "sourceName": "contracts/ProductAuth.sol",
  "abi": [
    {
      "inputs": [],
      "stateMutability": "nonpayable",
      "type": "constructor"
    },
    {
      "anonymous": false,
      "inputs": [
        {
          "indexed": false,
          "internalType": "string",
          "name": "serial",
          "type": "string"
        },
        {
          "indexed": false,
          "internalType": "string",
          "name": "location",
          "type": "string"
        }
      ],
      "name": "FakeReported",
      "type": "event"
    },
    {
      "anonymous": false,
      "inputs": [
        {
          "indexed": false,
          "internalType": "string",
          "name": "serial",
          "type": "string"
        },
        {
          "indexed": false,
          "internalType": "address",
          "name": "from",
          "type": "address"
        },
        {
          "indexed": false,
          "internalType": "address",
          "name": "to",
          "type": "address"
        }
      ],
      "name": "OwnershipTransferred",
      "type": "event"
    },
    {
      "anonymous": false,
      "inputs": [
        {
          "indexed": false,
          "internalType": "string",
          "name": "serial",
          "type": "string"
        },
        {
          "indexed": false,
          "internalType": "string",
          "name": "name",
          "type": "string"
        },
        {
          "indexed": false,
          "internalType": "address",
          "name": "manufacturer",
          "type": "address"
        }
      ],
      "name": "ProductRegistered",
      "type": "event"
    },
    {
      "anonymous": false,
      "inputs": [
        {
          "indexed": false,
          "internalType": "string",
          "name": "serial",
          "type": "string"
        },
        {
          "indexed": false,
          "internalType": "address",
          "name": "scanner",
          "type": "address"
        }
      ],
      "name": "ProductVerified",
      "type": "event"
    },
    {
      "inputs": [],
      "name": "admin",
      "outputs": [
        {
          "internalType": "address",
          "name": "",
          "type": "address"
        }
      ],
      "stateMutability": "view",
      "type": "function"
    },
    {
      "inputs": [
        {
          "internalType": "string",
          "name": "_serial",
          "type": "string"
        }
      ],
      "name": "claimOwnership",
      "outputs": [],
      "stateMutability": "nonpayable",
      "type": "function"
    },
    {
      "inputs": [
        {
          "internalType": "string",
          "name": "_serial",
          "type": "string"
        }
      ],
      "name": "getOwnershipHistory",
      "outputs": [
        {
          "internalType": "address[]",
          "name": "",
          "type": "address[]"
        }
      ],
      "stateMutability": "view",
      "type": "function"
    },
    {
      "inputs": [
        {
          "internalType": "address",
          "name": "_user",
          "type": "address"
        }
      ],
      "name": "getUserProducts",
      "outputs": [
        {
          "internalType": "string[]",
          "name": "",
          "type": "string[]"
        }
      ],
      "stateMutability": "view",
      "type": "function"
    },
    {
      "inputs": [
        {
          "internalType": "string",
          "name": "_serial",
          "type": "string"
        },
        {
          "internalType": "string",
          "name": "_name",
          "type": "string"
        },
        {
          "internalType": "string",
          "name": "_manufacturer",
          "type": "string"
        },
        {
          "internalType": "string",
          "name": "_imageHash",
          "type": "string"
        }
      ],
      "name": "registerProduct",
      "outputs": [],
      "stateMutability": "nonpayable",
      "type": "function"
    },
    {
      "inputs": [
        {
          "internalType": "string",
          "name": "_serial",
          "type": "string"
        },
        {
          "internalType": "string",
          "name": "_location",
          "type": "string"
        }
      ],
      "name": "reportFake",
      "outputs": [],
      "stateMutability": "nonpayable",
      "type": "function"
    },
    {
      "inputs": [],
      "name": "totalProducts",
      "outputs": [
        {
          "internalType": "uint256",
          "name": "",
          "type": "uint256"
        }
      ],
      "stateMutability": "view",
      "type": "function"
    },
    {
      "inputs": [],
      "name": "totalReports",
      "outputs": [
        {
          "internalType": "uint256",
          "name": "",
          "type": "uint256"
        }
      ],
      "stateMutability": "view",
      "type": "function"
    },
    {
      "inputs": [],
      "name": "totalScans",
      "outputs": [
        {
          "internalType": "uint256",
          "name": "",
          "type": "uint256"
        }
      ],
      "stateMutability": "view",
      "type": "function"
    },
    {
      "inputs": [
        {
          "internalType": "string",
          "name": "_serial",
          "type": "string"
        }
      ],
      "name": "verifyProduct",
      "outputs": [
        {
          "components": [
            {
              "internalType": "string",
              "name": "name",
              "type": "string"
            },
            {
              "internalType": "string",
              "name": "manufacturer",
              "type": "string"
            },
            {
              "internalType": "string",
              "name": "imageHash",
              "type": "string"
            },
            {
              "internalType": "uint256",
              "name": "timestamp",
              "type": "uint256"
            },
            {
              "internalType": "address",
              "name": "currentOwner",
              "type": "address"
            },
            {
              "internalType": "uint256",
              "name": "scanCount",
              "type": "uint256"
            },
            {
              "internalType": "bool",
              "name": "isRegistered",
              "type": "bool"
            },
            {
              "internalType": "bool",
              "name": "isSold",
              "type": "bool"
            }
          ],
          "internalType": "struct ProductAuth.Product",
          "name": "",
          "type": "tuple"
        }
      ],
      "stateMutability": "nonpayable",
      "type": "function"
    }
  ],
  "bytecode": "0x608060405234801561001057600080fd5b50600080546001600160a01b03191633179055611111806100326000396000f3fe608060405234801561001057600080fd5b506004361061009d5760003560e01c8063b00eba4f11610066578063b00eba4f14610120578063b0fe6d5314610129578063f545c2831461013c578063f851a4401461014f578063fee7f53b1461017a57600080fd5b8062c966be146100a25780630c23792b146100cb5780638799d6fc146100e257806392efc453146100f75780639b9d326d14610117575b600080fd5b6100b56100b0366004610b4e565b61019a565b6040516100c29190610b8b565b60405180910390f35b6100d460025481565b6040519081526020016100c2565b6100f56100f0366004610bd8565b610214565b005b61010a610105366004610b4e565b61041d565b6040516100c29190610cd5565b6100d460015481565b6100d460035481565b6100f5610137366004610d8c565b61074e565b6100f561014a366004610b4e565b6107a0565b600054610162906001600160a01b031681565b6040516001600160a01b0390911681526020016100c2565b61018d610188366004610df0565b6109bc565b6040516100c29190610e20565b60606005826040516101ac9190610e84565b908152604080519182900360209081018320805480830285018301909352828452919083018282801561020857602002820191906000526020600020905b81546001600160a01b031681526001909101906020018083116101ea575b50505050509050919050565b6004846040516102249190610e84565b9081526040519081900360200190206006015460ff16156102815760405162461bcd60e51b8152602060048201526012602482015271105b1c9958591e481c9959da5cdd195c995960721b60448201526064015b60405180910390fd5b604080516101008101825284815260208101849052808201839052426060820152336080820152600060a08201819052600160c083015260e082015290516004906102cd908790610e84565b908152604051908190036020019020815181906102ea9082610f2b565b50602082015160018201906102ff9082610f2b565b50604082015160028201906103149082610f2b565b506060820151600382015560808201516004820180546001600160a01b0319166001600160a01b0390921691909117905560a082015160058083019190915560c08301516006909201805460e09094015161ffff1990941692151561ff0019169290921761010093151593909302929092179055604051610396908690610e84565b90815260405190819003602090810190912080546001818101835560009283529282200180546001600160a01b03191633179055815491906103d783610feb565b91905055507fdc62d3d2ce3bcf04d8c0c001c3d1b9b793bc83b6a8d7de0cb99d77b4504cb5af84843360405161040f93929190611012565b60405180910390a150505050565b6104726040518061010001604052806060815260200160608152602001606081526020016000815260200160006001600160a01b03168152602001600081526020016000151581526020016000151581525090565b6004826040516104829190610e84565b9081526040519081900360200190206006015460ff1615610521576004826040516104ad9190610e84565b90815260405190819003602001902060050180549060006104cd83610feb565b9091555050600280549060006104e283610feb565b91905055507fdd10e2bb9ccf13719c1001a378a59729f1a0a7abebdc0b72f744d035a64150ca8233604051610518929190611050565b60405180910390a15b6004826040516105319190610e84565b90815260200160405180910390206040518061010001604052908160008201805461055b90610ea0565b80601f016020809104026020016040519081016040528092919081815260200182805461058790610ea0565b80156105d45780601f106105a9576101008083540402835291602001916105d4565b820191906000526020600020905b8154815290600101906020018083116105b757829003601f168201915b505050505081526020016001820180546105ed90610ea0565b80601f016020809104026020016040519081016040528092919081815260200182805461061990610ea0565b80156106665780601f1061063b57610100808354040283529160200191610666565b820191906000526020600020905b81548152906001019060200180831161064957829003601f168201915b5050505050815260200160028201805461067f90610ea0565b80601f01602080910402602001604051908101604052809291908181526020018280546106ab90610ea0565b80156106f85780601f106106cd576101008083540402835291602001916106f8565b820191906000526020600020905b8154815290600101906020018083116106db57829003601f168201915b50505091835250506003820154602082015260048201546001600160a01b031660408201526005820154606082015260069091015460ff8082161515608084015261010090910416151560a09091015292915050565b6003805490600061075e83610feb565b91905055507f6a57520e60a602db3811d93129f164a920350282621e5dc156e48beed3aa2742828260405161079492919061107a565b60405180910390a15050565b6004816040516107b09190610e84565b9081526040519081900360200190206006015460ff166108065760405162461bcd60e51b8152602060048201526011602482015270141c9bd91d58dd081b9bdd08199bdd5b99607a1b6044820152606401610278565b6004816040516108169190610e84565b9081526040519081900360200190206006015460ff61010090910416156108715760405162461bcd60e51b815260206004820152600f60248201526e105b1c9958591e4818db185a5b5959608a1b6044820152606401610278565b60006004826040516108839190610e84565b9081526040519081900360200181206004908101546001600160a01b0316925033916108b0908590610e84565b908152602001604051809103902060040160006101000a8154816001600160a01b0302191690836001600160a01b0316021790555060016004836040516108f79190610e84565b90815260405190819003602001812060060180549215156101000261ff00199093169290921790915560059061092e908490610e84565b908152604080516020928190038301902080546001808201835560009283528483209091018054336001600160a01b0319909116811790915582526006845291812080549283018155815291909120016109888382610f2b565b507f6840904f5b31827f74e1497360da245f56e530c8c3de3163a2d31f11493273c6828233604051610794939291906110a8565b6001600160a01b0381166000908152600660209081526040808320805482518185028101850190935280835260609492939192909184015b82821015610aa0578382906000526020600020018054610a1390610ea0565b80601f0160208091040260200160405190810160405280929190818152602001828054610a3f90610ea0565b8015610a8c5780601f10610a6157610100808354040283529160200191610a8c565b820191906000526020600020905b815481529060010190602001808311610a6f57829003601f168201915b5050505050815260200190600101906109f4565b505050509050919050565b634e487b7160e01b600052604160045260246000fd5b600082601f830112610ad257600080fd5b813567ffffffffffffffff80821115610aed57610aed610aab565b604051601f8301601f19908116603f01168101908282118183101715610b1557610b15610aab565b81604052838152866020858801011115610b2e57600080fd5b836020870160208301376000602085830101528094505050505092915050565b600060208284031215610b6057600080fd5b813567ffffffffffffffff811115610b7757600080fd5b610b8384828501610ac1565b949350505050565b6020808252825182820181905260009190848201906040850190845b81811015610bcc5783516001600160a01b031683529284019291840191600101610ba7565b50909695505050505050565b60008060008060808587031215610bee57600080fd5b843567ffffffffffffffff80821115610c0657600080fd5b610c1288838901610ac1565b95506020870135915080821115610c2857600080fd5b610c3488838901610ac1565b94506040870135915080821115610c4a57600080fd5b610c5688838901610ac1565b93506060870135915080821115610c6c57600080fd5b50610c7987828801610ac1565b91505092959194509250565b60005b83811015610ca0578181015183820152602001610c88565b50506000910152565b60008151808452610cc1816020860160208601610c85565b601f01601f19169290920160200192915050565b6020815260008251610100806020850152610cf4610120850183610ca9565b91506020850151601f1980868503016040870152610d128483610ca9565b9350604087015191508086850301606087015250610d308382610ca9565b925050606085015160808501526080850151610d5760a08601826001600160a01b03169052565b5060a085015160c085015260c0850151610d7560e086018215159052565b5060e0850151801515858301525090949350505050565b60008060408385031215610d9f57600080fd5b823567ffffffffffffffff80821115610db757600080fd5b610dc386838701610ac1565b93506020850135915080821115610dd957600080fd5b50610de685828601610ac1565b9150509250929050565b600060208284031215610e0257600080fd5b81356001600160a01b0381168114610e1957600080fd5b9392505050565b600060208083016020845280855180835260408601915060408160051b87010192506020870160005b82811015610e7757603f19888603018452610e65858351610ca9565b94509285019290850190600101610e49565b5092979650505050505050565b60008251610e96818460208701610c85565b9190910192915050565b600181811c90821680610eb457607f821691505b602082108103610ed457634e487b7160e01b600052602260045260246000fd5b50919050565b601f821115610f26576000816000526020600020601f850160051c81016020861015610f035750805b601f850160051c820191505b81811015610f2257828155600101610f0f565b5050505b505050565b815167ffffffffffffffff811115610f4557610f45610aab565b610f5981610f538454610ea0565b84610eda565b602080601f831160018114610f8e5760008415610f765750858301515b600019600386901b1c1916600185901b178555610f22565b600085815260208120601f198616915b82811015610fbd57888601518255948401946001909101908401610f9e565b5085821015610fdb5787850151600019600388901b60f8161c191681555b5050505050600190811b01905550565b60006001820161100b57634e487b7160e01b600052601160045260246000fd5b5060010190565b6060815260006110256060830186610ca9565b82810360208401526110378186610ca9565b91505060018060a01b0383166040830152949350505050565b6040815260006110636040830185610ca9565b905060018060a01b03831660208301529392505050565b60408152600061108d6040830185610ca9565b828103602084015261109f8185610ca9565b95945050505050565b6060815260006110bb6060830186610ca9565b6001600160a01b039485166020840152929093166040909101529291505056fea26469706673582212208cabe1cbb60c9d69ba4ac98bfbfcb17aa06488dc7316003a817ff628bfbaddb464736f6c63430008180033",
  "linkReferences": {},
  "deployedLinkReferences": {}
}